{
  "contractName": "Project",
  "abi": [
    {
      "inputs": [
        {
          "internalType": "string",
          "name": "_name",
          "type": "string"
        },
        {
          "internalType": "string",
          "name": "_country",
          "type": "string"
        },
        {
          "internalType": "string",
          "name": "_description",
          "type": "string"
        },
        {
          "internalType": "uint256",
          "name": "_fundsNeeded",
          "type": "uint256"
        },
        {
          "internalType": "string",
          "name": "_image",
          "type": "string"
        },
        {
          "internalType": "string",
          "name": "_logo",
          "type": "string"
        },
        {
          "internalType": "string",
          "name": "_initiated",
          "type": "string"
        },
        {
          "internalType": "string",
          "name": "_status",
          "type": "string"
        }
      ],
      "stateMutability": "nonpayable",
      "type": "constructor"
    },
    {
      "inputs": [],
      "name": "country",
      "outputs": [
        {
          "internalType": "string",
          "name": "",
          "type": "string"
        }
      ],
      "stateMutability": "view",
      "type": "function"
    },
    {
      "inputs": [],
      "name": "description",
      "outputs": [
        {
          "internalType": "string",
          "name": "",
          "type": "string"
        }
      ],
      "stateMutability": "view",
      "type": "function"
    },
    {
      "inputs": [],
      "name": "fundsNeeded",
      "outputs": [
        {
          "internalType": "uint256",
          "name": "",
          "type": "uint256"
        }
      ],
      "stateMutability": "view",
      "type": "function"
    },
    {
      "inputs": [],
      "name": "image",
      "outputs": [
        {
          "internalType": "string",
          "name": "",
          "type": "string"
        }
      ],
      "stateMutability": "view",
      "type": "function"
    },
    {
      "inputs": [],
      "name": "initiated",
      "outputs": [
        {
          "internalType": "string",
          "name": "",
          "type": "string"
        }
      ],
      "stateMutability": "view",
      "type": "function"
    },
    {
      "inputs": [],
      "name": "logo",
      "outputs": [
        {
          "internalType": "string",
          "name": "",
          "type": "string"
        }
      ],
      "stateMutability": "view",
      "type": "function"
    },
    {
      "inputs": [],
      "name": "name",
      "outputs": [
        {
          "internalType": "string",
          "name": "",
          "type": "string"
        }
      ],
      "stateMutability": "view",
      "type": "function"
    },
    {
      "inputs": [],
      "name": "status",
      "outputs": [
        {
          "internalType": "string",
          "name": "",
          "type": "string"
        }
      ],
      "stateMutability": "view",
      "type": "function"
    },
    {
      "inputs": [],
      "name": "GetProjectDetails",
      "outputs": [
        {
          "internalType": "string",
          "name": "projectName",
          "type": "string"
        },
        {
          "internalType": "string",
          "name": "projectCountry",
          "type": "string"
        },
        {
          "internalType": "string",
          "name": "projectDescription",
          "type": "string"
        },
        {
          "internalType": "uint256",
          "name": "projectFundsNeeded",
          "type": "uint256"
        },
        {
          "internalType": "string",
          "name": "projectImage",
          "type": "string"
        },
        {
          "internalType": "string",
          "name": "projectLogo",
          "type": "string"
        },
        {
          "internalType": "string",
          "name": "projectInitiated",
          "type": "string"
        },
        {
          "internalType": "string",
          "name": "projectStatus",
          "type": "string"
        }
      ],
      "stateMutability": "view",
      "type": "function"
    }
  ],
  "bytecode": "0x60806040523480156200001157600080fd5b506040516200115938038062001159833981810160405281019062000037919062000383565b87600090805190602001906200004f929190620000fb565b50866001908051906020019062000068929190620000fb565b50856002908051906020019062000081929190620000fb565b50846003819055508360049080519060200190620000a1929190620000fb565b508260059080519060200190620000ba929190620000fb565b508160069080519060200190620000d3929190620000fb565b508060079080519060200190620000ec929190620000fb565b50505050505050505062000589565b828054620001099062000554565b90600052602060002090601f0160209004810192826200012d576000855562000179565b82601f106200014857805160ff191683800117855562000179565b8280016001018555821562000179579182015b82811115620001785782518255916020019190600101906200015b565b5b5090506200018891906200018c565b5090565b5b80821115620001a75760008160009055506001016200018d565b5090565b6000604051905090565b600080fd5b600080fd5b600080fd5b600080fd5b6000601f19601f8301169050919050565b7f4e487b7100000000000000000000000000000000000000000000000000000000600052604160045260246000fd5b6200021482620001c9565b810181811067ffffffffffffffff82111715620002365762000235620001da565b5b80604052505050565b60006200024b620001ab565b905062000259828262000209565b919050565b600067ffffffffffffffff8211156200027c576200027b620001da565b5b6200028782620001c9565b9050602081019050919050565b60005b83811015620002b457808201518184015260208101905062000297565b83811115620002c4576000848401525b50505050565b6000620002e1620002db846200025e565b6200023f565b9050828152602081018484840111156200030057620002ff620001c4565b5b6200030d84828562000294565b509392505050565b600082601f8301126200032d576200032c620001bf565b5b81516200033f848260208601620002ca565b91505092915050565b6000819050919050565b6200035d8162000348565b81146200036957600080fd5b50565b6000815190506200037d8162000352565b92915050565b600080600080600080600080610100898b031215620003a757620003a6620001b5565b5b600089015167ffffffffffffffff811115620003c857620003c7620001ba565b5b620003d68b828c0162000315565b985050602089015167ffffffffffffffff811115620003fa57620003f9620001ba565b5b620004088b828c0162000315565b975050604089015167ffffffffffffffff8111156200042c576200042b620001ba565b5b6200043a8b828c0162000315565b96505060606200044d8b828c016200036c565b955050608089015167ffffffffffffffff811115620004715762000470620001ba565b5b6200047f8b828c0162000315565b94505060a089015167ffffffffffffffff811115620004a357620004a2620001ba565b5b620004b18b828c0162000315565b93505060c089015167ffffffffffffffff811115620004d557620004d4620001ba565b5b620004e38b828c0162000315565b92505060e089015167ffffffffffffffff811115620005075762000506620001ba565b5b620005158b828c0162000315565b9150509295985092959890939650565b7f4e487b7100000000000000000000000000000000000000000000000000000000600052602260045260246000fd5b600060028204905060018216806200056d57607f821691505b60208210810362000583576200058262000525565b5b50919050565b610bc080620005996000396000f3fe608060405234801561001057600080fd5b50600436106100935760003560e01c80637284e416116100665780637284e416146101175780639f11853614610135578063d8b0b49914610153578063f3ccaac014610171578063fb7f21eb1461018f57610093565b806306fdde03146100985780631fdfeed1146100b6578063200d2ed2146100d45780636ead3533146100f2575b600080fd5b6100a06101ad565b6040516100ad9190610a25565b60405180910390f35b6100be61023b565b6040516100cb9190610a60565b60405180910390f35b6100dc610241565b6040516100e99190610a25565b60405180910390f35b6100fa6102cf565b60405161010e989796959493929190610a7b565b60405180910390f35b61011f6106c6565b60405161012c9190610a25565b60405180910390f35b61013d610754565b60405161014a9190610a25565b60405180910390f35b61015b6107e2565b6040516101689190610a25565b60405180910390f35b610179610870565b6040516101869190610a25565b60405180910390f35b6101976108fe565b6040516101a49190610a25565b60405180910390f35b600080546101ba90610b59565b80601f01602080910402602001604051908101604052809291908181526020018280546101e690610b59565b80156102335780601f1061020857610100808354040283529160200191610233565b820191906000526020600020905b81548152906001019060200180831161021657829003601f168201915b505050505081565b60035481565b6007805461024e90610b59565b80601f016020809104026020016040519081016040528092919081815260200182805461027a90610b59565b80156102c75780601f1061029c576101008083540402835291602001916102c7565b820191906000526020600020905b8154815290600101906020018083116102aa57829003601f168201915b505050505081565b60608060606000606080606080600080546102e990610b59565b80601f016020809104026020016040519081016040528092919081815260200182805461031590610b59565b80156103625780601f1061033757610100808354040283529160200191610362565b820191906000526020600020905b81548152906001019060200180831161034557829003601f168201915b505050505097506001805461037690610b59565b80601f01602080910402602001604051908101604052809291908181526020018280546103a290610b59565b80156103ef5780601f106103c4576101008083540402835291602001916103ef565b820191906000526020600020905b8154815290600101906020018083116103d257829003601f168201915b505050505096506002805461040390610b59565b80601f016020809104026020016040519081016040528092919081815260200182805461042f90610b59565b801561047c5780601f106104515761010080835404028352916020019161047c565b820191906000526020600020905b81548152906001019060200180831161045f57829003601f168201915b5050505050955060035494506004805461049590610b59565b80601f01602080910402602001604051908101604052809291908181526020018280546104c190610b59565b801561050e5780601f106104e35761010080835404028352916020019161050e565b820191906000526020600020905b8154815290600101906020018083116104f157829003601f168201915b505050505093506005805461052290610b59565b80601f016020809104026020016040519081016040528092919081815260200182805461054e90610b59565b801561059b5780601f106105705761010080835404028352916020019161059b565b820191906000526020600020905b81548152906001019060200180831161057e57829003601f168201915b50505050509250600680546105af90610b59565b80601f01602080910402602001604051908101604052809291908181526020018280546105db90610b59565b80156106285780601f106105fd57610100808354040283529160200191610628565b820191906000526020600020905b81548152906001019060200180831161060b57829003601f168201915b505050505091506007805461063c90610b59565b80601f016020809104026020016040519081016040528092919081815260200182805461066890610b59565b80156106b55780601f1061068a576101008083540402835291602001916106b5565b820191906000526020600020905b81548152906001019060200180831161069857829003601f168201915b505050505090509091929394959697565b600280546106d390610b59565b80601f01602080910402602001604051908101604052809291908181526020018280546106ff90610b59565b801561074c5780601f106107215761010080835404028352916020019161074c565b820191906000526020600020905b81548152906001019060200180831161072f57829003601f168201915b505050505081565b6006805461076190610b59565b80601f016020809104026020016040519081016040528092919081815260200182805461078d90610b59565b80156107da5780601f106107af576101008083540402835291602001916107da565b820191906000526020600020905b8154815290600101906020018083116107bd57829003601f168201915b505050505081565b600180546107ef90610b59565b80601f016020809104026020016040519081016040528092919081815260200182805461081b90610b59565b80156108685780601f1061083d57610100808354040283529160200191610868565b820191906000526020600020905b81548152906001019060200180831161084b57829003601f168201915b505050505081565b6004805461087d90610b59565b80601f01602080910402602001604051908101604052809291908181526020018280546108a990610b59565b80156108f65780601f106108cb576101008083540402835291602001916108f6565b820191906000526020600020905b8154815290600101906020018083116108d957829003601f168201915b505050505081565b6005805461090b90610b59565b80601f016020809104026020016040519081016040528092919081815260200182805461093790610b59565b80156109845780601f1061095957610100808354040283529160200191610984565b820191906000526020600020905b81548152906001019060200180831161096757829003601f168201915b505050505081565b600081519050919050565b600082825260208201905092915050565b60005b838110156109c65780820151818401526020810190506109ab565b838111156109d5576000848401525b50505050565b6000601f19601f8301169050919050565b60006109f78261098c565b610a018185610997565b9350610a118185602086016109a8565b610a1a816109db565b840191505092915050565b60006020820190508181036000830152610a3f81846109ec565b905092915050565b6000819050919050565b610a5a81610a47565b82525050565b6000602082019050610a756000830184610a51565b92915050565b6000610100820190508181036000830152610a96818b6109ec565b90508181036020830152610aaa818a6109ec565b90508181036040830152610abe81896109ec565b9050610acd6060830188610a51565b8181036080830152610adf81876109ec565b905081810360a0830152610af381866109ec565b905081810360c0830152610b0781856109ec565b905081810360e0830152610b1b81846109ec565b90509998505050505050505050565b7f4e487b7100000000000000000000000000000000000000000000000000000000600052602260045260246000fd5b60006002820490506001821680610b7157607f821691505b602082108103610b8457610b83610b2a565b5b5091905056fea264697066735822122097aed15492c42c2bcf7d8f1e8074376101caafa4cb99066650088cd38b3edfc264736f6c634300080e0033",
  "immutableReferences": {},
  "source": "// SPDX-License-Identifier: MIT\r\npragma solidity >=0.5.4 <0.9.0;\r\n\r\ncontract ProjectFunding {\r\n    struct ProjectDetails {\r\n        string name;\r\n        string description;\r\n        string country;\r\n    }\r\n\r\n    // List of existing projects\r\n    Project[] private projects;\r\n\r\n    event ProjectCreated(\r\n        address contractAddress\r\n    );\r\n\r\n    function createProject(\r\n        ProjectDetails memory details,\r\n        uint256 fundsNeeded,\r\n        string calldata image,\r\n        string calldata logo,\r\n        string calldata initiated,\r\n        string calldata status  // Enum?\r\n    ) external {\r\n        Project newProject = new Project(\r\n            details.name,\r\n            details.country,\r\n            details.description,\r\n            fundsNeeded,\r\n            image,\r\n            logo,\r\n            initiated,\r\n            status\r\n        );\r\n        projects.push(newProject);\r\n        emit ProjectCreated(\r\n            address(newProject)\r\n        );\r\n    }\r\n\r\n    function returnAllProjects() external view returns(Project[] memory){\r\n        return projects;\r\n    }\r\n\r\n}\r\n\r\ncontract Project {    \r\n    string public name;\r\n    string public country;\r\n    string public description;\r\n    uint256 public fundsNeeded;\r\n    string public image;\r\n    string public logo;\r\n    string public initiated;\r\n    string public status;\r\n\r\n    constructor\r\n    (\r\n        string memory _name,\r\n        string memory _country,\r\n        string memory _description,\r\n        uint256 _fundsNeeded,\r\n        string memory _image,\r\n        string memory _logo,\r\n        string memory _initiated,\r\n        string memory _status\r\n    ) {\r\n        name = _name;\r\n        country = _country;\r\n        description = _description;\r\n        fundsNeeded = _fundsNeeded;\r\n        image = _image;\r\n        logo = _logo;\r\n        initiated = _initiated;\r\n        status = _status;\r\n    }\r\n\r\n    function GetProjectDetails() public view returns \r\n    (\r\n        string memory projectName,\r\n        string memory projectCountry,\r\n        string memory projectDescription,\r\n        uint256 projectFundsNeeded,\r\n        string memory projectImage,\r\n        string memory projectLogo,\r\n        string memory projectInitiated,\r\n        string memory projectStatus\r\n    ) {\r\n        projectName = name;\r\n        projectCountry = country;\r\n        projectDescription = description;\r\n        projectFundsNeeded = fundsNeeded;\r\n        projectImage = image;\r\n        projectLogo = logo;\r\n        projectInitiated = initiated;\r\n        projectStatus = status;\r\n    }\r\n}",
  "sourcePath": "C:\\Users\\Jan-WillemMaris-Benc\\source\\repos\\Momentum.FosilFreeFuture\\Momentum.FosilFreeFuture.Service\\Blockchain\\contracts\\ProjectFunding.sol",
  "compiler": {
    "name": "solc",
    "version": "0.8.14+commit.80d49f37.Emscripten.clang"
  },
  "schemaVersion": "3.4.7",
  "updatedAt": "2022-06-09T14:25:20.108Z",
  "devdoc": {
    "kind": "dev",
    "methods": {},
    "version": 1
  },
  "userdoc": {
    "kind": "user",
    "methods": {},
    "version": 1
  }
}