{
  "contractName": "ProjectFunding_dev",
  "abi": [
    {
      "anonymous": false,
      "inputs": [
        {
          "indexed": false,
          "internalType": "address",
          "name": "contractAddress",
          "type": "address"
        },
        {
          "indexed": false,
          "internalType": "address",
          "name": "projectStarter",
          "type": "address"
        },
        {
          "indexed": false,
          "internalType": "string",
          "name": "projectTitle",
          "type": "string"
        },
        {
          "indexed": false,
          "internalType": "string",
          "name": "projectDesc",
          "type": "string"
        },
        {
          "indexed": false,
          "internalType": "uint256",
          "name": "goalAmount",
          "type": "uint256"
        }
      ],
      "name": "ProjectStarted",
      "type": "event"
    },
    {
      "inputs": [
        {
          "internalType": "uint256",
          "name": "",
          "type": "uint256"
        }
      ],
      "name": "projects",
      "outputs": [
        {
          "internalType": "contract Project_dev",
          "name": "",
          "type": "address"
        }
      ],
      "stateMutability": "view",
      "type": "function",
      "constant": true
    },
    {
      "inputs": [
        {
          "internalType": "string",
          "name": "title",
          "type": "string"
        },
        {
          "internalType": "string",
          "name": "description",
          "type": "string"
        },
        {
          "internalType": "uint256",
          "name": "amountToRaise",
          "type": "uint256"
        }
      ],
      "name": "createProject",
      "outputs": [],
      "stateMutability": "nonpayable",
      "type": "function"
    }
  ],
  "bytecode": "0x608060405234801561001057600080fd5b50611141806100206000396000f3fe60806040523480156200001157600080fd5b50600436106200003a5760003560e01c8063107046bd146200003f57806323c554481462000075575b600080fd5b6200005d60048036038101906200005791906200021f565b62000095565b6040516200006c9190620002dc565b60405180910390f35b6200009360048036038101906200008d919062000367565b620000d5565b005b60008181548110620000a657600080fd5b906000526020600020016000915054906101000a900473ffffffffffffffffffffffffffffffffffffffff1681565b6000338686868686604051620000eb90620001cc565b620000fc96959493929190620004a5565b604051809103906000f08015801562000119573d6000803e3d6000fd5b5090506000819080600181540180825580915050600190039060005260206000200160009091909190916101000a81548173ffffffffffffffffffffffffffffffffffffffff021916908373ffffffffffffffffffffffffffffffffffffffff1602179055507f27646a02ad9e66eb7b9f091863deebb085f916814dc0f55dd70a0f336f5c8c4981338888888888604051620001bc97969594939291906200054e565b60405180910390a1505050505050565b610b4e80620005be83390190565b600080fd5b600080fd5b6000819050919050565b620001f981620001e4565b81146200020557600080fd5b50565b6000813590506200021981620001ee565b92915050565b600060208284031215620002385762000237620001da565b5b6000620002488482850162000208565b91505092915050565b600073ffffffffffffffffffffffffffffffffffffffff82169050919050565b6000819050919050565b60006200029c62000296620002908462000251565b62000271565b62000251565b9050919050565b6000620002b0826200027b565b9050919050565b6000620002c482620002a3565b9050919050565b620002d681620002b7565b82525050565b6000602082019050620002f36000830184620002cb565b92915050565b600080fd5b600080fd5b600080fd5b60008083601f840112620003215762000320620002f9565b5b8235905067ffffffffffffffff811115620003415762000340620002fe565b5b60208301915083600182028301111562000360576200035f62000303565b5b9250929050565b600080600080600060608688031215620003865762000385620001da565b5b600086013567ffffffffffffffff811115620003a757620003a6620001df565b5b620003b58882890162000308565b9550955050602086013567ffffffffffffffff811115620003db57620003da620001df565b5b620003e98882890162000308565b93509350506040620003fe8882890162000208565b9150509295509295909350565b6000620004188262000251565b9050919050565b6200042a816200040b565b82525050565b600082825260208201905092915050565b82818337600083830152505050565b6000601f19601f8301169050919050565b60006200046f838562000430565b93506200047e83858462000441565b620004898362000450565b840190509392505050565b6200049f81620001e4565b82525050565b6000608082019050620004bc60008301896200041f565b8181036020830152620004d181878962000461565b90508181036040830152620004e881858762000461565b9050620004f9606083018462000494565b979650505050505050565b6000620005118262000251565b9050919050565b620005238162000504565b82525050565b60006200053682620002a3565b9050919050565b620005488162000529565b82525050565b600060a08201905062000565600083018a62000518565b6200057460208301896200053d565b81810360408301526200058981878962000461565b90508181036060830152620005a081858762000461565b9050620005b1608083018462000494565b9897505050505050505056fe60806040526000600760006101000a81548160ff021916908360018111156200002d576200002c620001a0565b5b02179055503480156200003f57600080fd5b5060405162000b4e38038062000b4e83398181016040528101906200006591906200040c565b836000806101000a81548173ffffffffffffffffffffffffffffffffffffffff021916908373ffffffffffffffffffffffffffffffffffffffff1602179055508260059080519060200190620000bd929190620000f0565b508160069080519060200190620000d6929190620000f0565b508060018190555060006003819055505050505062000520565b828054620000fe90620004eb565b90600052602060002090601f0160209004810192826200012257600085556200016e565b82601f106200013d57805160ff19168380011785556200016e565b828001600101855582156200016e579182015b828111156200016d57825182559160200191906001019062000150565b5b5090506200017d919062000181565b5090565b5b808211156200019c57600081600090555060010162000182565b5090565b7f4e487b7100000000000000000000000000000000000000000000000000000000600052602160045260246000fd5b6000604051905090565b600080fd5b600080fd5b600073ffffffffffffffffffffffffffffffffffffffff82169050919050565b60006200021082620001e3565b9050919050565b620002228162000203565b81146200022e57600080fd5b50565b600081519050620002428162000217565b92915050565b600080fd5b600080fd5b6000601f19601f8301169050919050565b7f4e487b7100000000000000000000000000000000000000000000000000000000600052604160045260246000fd5b6200029d8262000252565b810181811067ffffffffffffffff82111715620002bf57620002be62000263565b5b80604052505050565b6000620002d4620001cf565b9050620002e2828262000292565b919050565b600067ffffffffffffffff82111562000305576200030462000263565b5b620003108262000252565b9050602081019050919050565b60005b838110156200033d57808201518184015260208101905062000320565b838111156200034d576000848401525b50505050565b60006200036a6200036484620002e7565b620002c8565b9050828152602081018484840111156200038957620003886200024d565b5b620003968482856200031d565b509392505050565b600082601f830112620003b657620003b562000248565b5b8151620003c884826020860162000353565b91505092915050565b6000819050919050565b620003e681620003d1565b8114620003f257600080fd5b50565b6000815190506200040681620003db565b92915050565b60008060008060808587031215620004295762000428620001d9565b5b6000620004398782880162000231565b945050602085015167ffffffffffffffff8111156200045d576200045c620001de565b5b6200046b878288016200039e565b935050604085015167ffffffffffffffff8111156200048f576200048e620001de565b5b6200049d878288016200039e565b9250506060620004b087828801620003f5565b91505092959194509250565b7f4e487b7100000000000000000000000000000000000000000000000000000000600052602260045260246000fd5b600060028204905060018216806200050457607f821691505b6020821081036200051a5762000519620004bc565b5b50919050565b61061e80620005306000396000f3fe608060405234801561001057600080fd5b50600436106100935760003560e01c80634a79d50c116100665780634a79d50c146101225780634c4cea5a146101405780637284e4161461015e578063c19d93fb1461017c578063ce845d1d1461019a57610093565b806302d05d3f146100985780630785001c146100b657806337f944cc146100d457806342e94c90146100f2575b600080fd5b6100a06101b8565b6040516100ad919061037c565b60405180910390f35b6100be6101dc565b6040516100cb91906103b0565b60405180910390f35b6100dc6101e2565b6040516100e991906103b0565b60405180910390f35b61010c6004803603810190610107919061040e565b6101e8565b60405161011991906103b0565b60405180910390f35b61012a610200565b60405161013791906104d4565b60405180910390f35b61014861028e565b60405161015591906103b0565b60405180910390f35b610166610294565b60405161017391906104d4565b60405180910390f35b610184610322565b604051610191919061056d565b60405180910390f35b6101a2610335565b6040516101af91906103b0565b60405180910390f35b60008054906101000a900473ffffffffffffffffffffffffffffffffffffffff1681565b60015481565b60045481565b60086020528060005260406000206000915090505481565b6005805461020d906105b7565b80601f0160208091040260200160405190810160405280929190818152602001828054610239906105b7565b80156102865780601f1061025b57610100808354040283529160200191610286565b820191906000526020600020905b81548152906001019060200180831161026957829003601f168201915b505050505081565b60025481565b600680546102a1906105b7565b80601f01602080910402602001604051908101604052809291908181526020018280546102cd906105b7565b801561031a5780601f106102ef5761010080835404028352916020019161031a565b820191906000526020600020905b8154815290600101906020018083116102fd57829003601f168201915b505050505081565b600760009054906101000a900460ff1681565b60035481565b600073ffffffffffffffffffffffffffffffffffffffff82169050919050565b60006103668261033b565b9050919050565b6103768161035b565b82525050565b6000602082019050610391600083018461036d565b92915050565b6000819050919050565b6103aa81610397565b82525050565b60006020820190506103c560008301846103a1565b92915050565b600080fd5b60006103db8261033b565b9050919050565b6103eb816103d0565b81146103f657600080fd5b50565b600081359050610408816103e2565b92915050565b600060208284031215610424576104236103cb565b5b6000610432848285016103f9565b91505092915050565b600081519050919050565b600082825260208201905092915050565b60005b8381101561047557808201518184015260208101905061045a565b83811115610484576000848401525b50505050565b6000601f19601f8301169050919050565b60006104a68261043b565b6104b08185610446565b93506104c0818560208601610457565b6104c98161048a565b840191505092915050565b600060208201905081810360008301526104ee818461049b565b905092915050565b7f4e487b7100000000000000000000000000000000000000000000000000000000600052602160045260246000fd5b60028110610536576105356104f6565b5b50565b600081905061054782610525565b919050565b600061055782610539565b9050919050565b6105678161054c565b82525050565b6000602082019050610582600083018461055e565b92915050565b7f4e487b7100000000000000000000000000000000000000000000000000000000600052602260045260246000fd5b600060028204905060018216806105cf57607f821691505b6020821081036105e2576105e1610588565b5b5091905056fea2646970667358221220411246a69143f99a377d2ee4cbd3dddd703d83ff95c6216f84e1174d2b757cab64736f6c634300080e0033a26469706673582212204c16ed3378068bab999f85fcdc232977d91760bf9dd018aabc9c9a1867eb46b764736f6c634300080e0033",
  "immutableReferences": {},
  "source": "pragma solidity >=0.4.22 <0.9.0;\r\n\r\ncontract ProjectFunding_dev {\r\n Project_dev[] public projects;\r\n\r\n    event ProjectStarted(\r\n        address contractAddress,\r\n        address projectStarter,\r\n        string projectTitle,\r\n        string projectDesc,\r\n        uint256 goalAmount\r\n    );\r\n\r\n    function createProject(\r\n    string calldata title,\r\n    string calldata description,\r\n    uint amountToRaise\r\n\r\n    ) external {\r\n        Project_dev newProject = new Project_dev (payable(msg.sender), title, description, amountToRaise);\r\n        projects.push(newProject);\r\n        emit ProjectStarted(\r\n            address(newProject),\r\n            payable(msg.sender),\r\n            title,\r\n            description,\r\n            amountToRaise\r\n        );\r\n    }   \r\n\r\n}\r\n\r\ncontract Project_dev {\r\n    \r\n    enum State {\r\n        Fundraising,\r\n        Successful\r\n    }\r\n\r\n    address payable public creator;\r\n    uint public amountGoal; \r\n    uint public completeAt;\r\n    uint256 public currentBalance;\r\n    uint public raiseBy;\r\n    string public title;\r\n    string public description;\r\n    State public state = State.Fundraising; \r\n    mapping (address => uint) public contributions;\r\n\r\n    constructor\r\n    (\r\n        address payable projectStarter,\r\n        string memory projectTitle,\r\n        string memory projectDesc,\r\n        uint goalAmount\r\n    ) public {\r\n        creator = projectStarter;\r\n        title = projectTitle;\r\n        description = projectDesc;\r\n        amountGoal = goalAmount;\r\n        currentBalance = 0;\r\n    }\r\n}",
  "sourcePath": "C:\\Repos\\Momentum.FosilFreeFuture\\Momentum.FosilFreeFuture.Service\\Blockchain\\contracts\\ProjectFunding_dev.sol",
  "compiler": {
    "name": "solc",
    "version": "0.8.14+commit.80d49f37.Emscripten.clang"
  },
  "schemaVersion": "3.4.7",
  "updatedAt": "2022-06-09T09:59:29.063Z",
  "networkType": "ethereum",
  "devdoc": {
    "kind": "dev",
    "methods": {},
    "version": 1
  },
  "userdoc": {
    "kind": "user",
    "methods": {},
    "version": 1
  }
}