{
  "contractName": "ProjectFunding",
  "abi": [
    {
      "anonymous": false,
      "inputs": [
        {
          "indexed": false,
          "internalType": "address",
          "name": "contractAddress",
          "type": "address"
        },
        {
          "indexed": false,
          "internalType": "address",
          "name": "projectStarter",
          "type": "address"
        },
        {
          "indexed": false,
          "internalType": "string",
          "name": "projectTitle",
          "type": "string"
        },
        {
          "indexed": false,
          "internalType": "string",
          "name": "projectDesc",
          "type": "string"
        },
        {
          "indexed": false,
          "internalType": "uint256",
          "name": "goalAmount",
          "type": "uint256"
        }
      ],
      "name": "ProjectStarted",
      "type": "event"
    },
    {
      "inputs": [
        {
          "internalType": "uint256",
          "name": "",
          "type": "uint256"
        }
      ],
      "name": "projects",
      "outputs": [
        {
          "internalType": "contract Project",
          "name": "",
          "type": "address"
        }
      ],
      "stateMutability": "view",
      "type": "function",
      "constant": true
    },
    {
      "inputs": [
        {
          "internalType": "string",
          "name": "title",
          "type": "string"
        },
        {
          "internalType": "string",
          "name": "description",
          "type": "string"
        },
        {
          "internalType": "uint256",
          "name": "amountToRaise",
          "type": "uint256"
        }
      ],
      "name": "createProject",
      "outputs": [],
      "stateMutability": "nonpayable",
      "type": "function"
    }
  ],
  "bytecode": "0x608060405234801561001057600080fd5b5061134a806100206000396000f3fe60806040523480156200001157600080fd5b50600436106200003a5760003560e01c8063107046bd146200003f57806323c554481462000075575b600080fd5b6200005d60048036038101906200005791906200021f565b62000095565b6040516200006c9190620002dc565b60405180910390f35b6200009360048036038101906200008d919062000367565b620000d5565b005b60008181548110620000a657600080fd5b906000526020600020016000915054906101000a900473ffffffffffffffffffffffffffffffffffffffff1681565b6000338686868686604051620000eb90620001cc565b620000fc96959493929190620004a5565b604051809103906000f08015801562000119573d6000803e3d6000fd5b5090506000819080600181540180825580915050600190039060005260206000200160009091909190916101000a81548173ffffffffffffffffffffffffffffffffffffffff021916908373ffffffffffffffffffffffffffffffffffffffff1602179055507f27646a02ad9e66eb7b9f091863deebb085f916814dc0f55dd70a0f336f5c8c4981338888888888604051620001bc97969594939291906200054e565b60405180910390a1505050505050565b610d5780620005be83390190565b600080fd5b600080fd5b6000819050919050565b620001f981620001e4565b81146200020557600080fd5b50565b6000813590506200021981620001ee565b92915050565b600060208284031215620002385762000237620001da565b5b6000620002488482850162000208565b91505092915050565b600073ffffffffffffffffffffffffffffffffffffffff82169050919050565b6000819050919050565b60006200029c62000296620002908462000251565b62000271565b62000251565b9050919050565b6000620002b0826200027b565b9050919050565b6000620002c482620002a3565b9050919050565b620002d681620002b7565b82525050565b6000602082019050620002f36000830184620002cb565b92915050565b600080fd5b600080fd5b600080fd5b60008083601f840112620003215762000320620002f9565b5b8235905067ffffffffffffffff811115620003415762000340620002fe565b5b60208301915083600182028301111562000360576200035f62000303565b5b9250929050565b600080600080600060608688031215620003865762000385620001da565b5b600086013567ffffffffffffffff811115620003a757620003a6620001df565b5b620003b58882890162000308565b9550955050602086013567ffffffffffffffff811115620003db57620003da620001df565b5b620003e98882890162000308565b93509350506040620003fe8882890162000208565b9150509295509295909350565b6000620004188262000251565b9050919050565b6200042a816200040b565b82525050565b600082825260208201905092915050565b82818337600083830152505050565b6000601f19601f8301169050919050565b60006200046f838562000430565b93506200047e83858462000441565b620004898362000450565b840190509392505050565b6200049f81620001e4565b82525050565b6000608082019050620004bc60008301896200041f565b8181036020830152620004d181878962000461565b90508181036040830152620004e881858762000461565b9050620004f9606083018462000494565b979650505050505050565b6000620005118262000251565b9050919050565b620005238162000504565b82525050565b60006200053682620002a3565b9050919050565b620005488162000529565b82525050565b600060a08201905062000565600083018a62000518565b6200057460208301896200053d565b81810360408301526200058981878962000461565b90508181036060830152620005a081858762000461565b9050620005b1608083018462000494565b9897505050505050505056fe60806040526000600760006101000a81548160ff021916908360018111156200002d576200002c620001a0565b5b02179055503480156200003f57600080fd5b5060405162000d5738038062000d5783398181016040528101906200006591906200040c565b836000806101000a81548173ffffffffffffffffffffffffffffffffffffffff021916908373ffffffffffffffffffffffffffffffffffffffff1602179055508260059080519060200190620000bd929190620000f0565b508160069080519060200190620000d6929190620000f0565b508060018190555060006003819055505050505062000520565b828054620000fe90620004eb565b90600052602060002090601f0160209004810192826200012257600085556200016e565b82601f106200013d57805160ff19168380011785556200016e565b828001600101855582156200016e579182015b828111156200016d57825182559160200191906001019062000150565b5b5090506200017d919062000181565b5090565b5b808211156200019c57600081600090555060010162000182565b5090565b7f4e487b7100000000000000000000000000000000000000000000000000000000600052602160045260246000fd5b6000604051905090565b600080fd5b600080fd5b600073ffffffffffffffffffffffffffffffffffffffff82169050919050565b60006200021082620001e3565b9050919050565b620002228162000203565b81146200022e57600080fd5b50565b600081519050620002428162000217565b92915050565b600080fd5b600080fd5b6000601f19601f8301169050919050565b7f4e487b7100000000000000000000000000000000000000000000000000000000600052604160045260246000fd5b6200029d8262000252565b810181811067ffffffffffffffff82111715620002bf57620002be62000263565b5b80604052505050565b6000620002d4620001cf565b9050620002e2828262000292565b919050565b600067ffffffffffffffff82111562000305576200030462000263565b5b620003108262000252565b9050602081019050919050565b60005b838110156200033d57808201518184015260208101905062000320565b838111156200034d576000848401525b50505050565b60006200036a6200036484620002e7565b620002c8565b9050828152602081018484840111156200038957620003886200024d565b5b620003968482856200031d565b509392505050565b600082601f830112620003b657620003b562000248565b5b8151620003c884826020860162000353565b91505092915050565b6000819050919050565b620003e681620003d1565b8114620003f257600080fd5b50565b6000815190506200040681620003db565b92915050565b60008060008060808587031215620004295762000428620001d9565b5b6000620004398782880162000231565b945050602085015167ffffffffffffffff8111156200045d576200045c620001de565b5b6200046b878288016200039e565b935050604085015167ffffffffffffffff8111156200048f576200048e620001de565b5b6200049d878288016200039e565b9250506060620004b087828801620003f5565b91505092959194509250565b7f4e487b7100000000000000000000000000000000000000000000000000000000600052602260045260246000fd5b600060028204905060018216806200050457607f821691505b6020821081036200051a5762000519620004bc565b5b50919050565b61082780620005306000396000f3fe608060405234801561001057600080fd5b506004361061009e5760003560e01c80634c4cea5a116100665780634c4cea5a1461014b5780637284e41614610169578063c19d93fb14610187578063ce845d1d146101a5578063fbbf93a0146101c35761009e565b806302d05d3f146100a35780630785001c146100c157806337f944cc146100df57806342e94c90146100fd5780634a79d50c1461012d575b600080fd5b6100ab6101e6565b6040516100b89190610516565b60405180910390f35b6100c961020a565b6040516100d6919061054a565b60405180910390f35b6100e7610210565b6040516100f4919061054a565b60405180910390f35b610117600480360381019061011291906105a8565b610216565b604051610124919061054a565b60405180910390f35b61013561022e565b604051610142919061066e565b60405180910390f35b6101536102bc565b604051610160919061054a565b60405180910390f35b6101716102c2565b60405161017e919061066e565b60405180910390f35b61018f610350565b60405161019c9190610707565b60405180910390f35b6101ad610363565b6040516101ba919061054a565b60405180910390f35b6101cb610369565b6040516101dd96959493929190610722565b60405180910390f35b60008054906101000a900473ffffffffffffffffffffffffffffffffffffffff1681565b60015481565b60045481565b60086020528060005260406000206000915090505481565b6005805461023b906107c0565b80601f0160208091040260200160405190810160405280929190818152602001828054610267906107c0565b80156102b45780601f10610289576101008083540402835291602001916102b4565b820191906000526020600020905b81548152906001019060200180831161029757829003601f168201915b505050505081565b60025481565b600680546102cf906107c0565b80601f01602080910402602001604051908101604052809291908181526020018280546102fb906107c0565b80156103485780601f1061031d57610100808354040283529160200191610348565b820191906000526020600020905b81548152906001019060200180831161032b57829003601f168201915b505050505081565b600760009054906101000a900460ff1681565b60035481565b600060608060008060008060009054906101000a900473ffffffffffffffffffffffffffffffffffffffff169550600580546103a4906107c0565b80601f01602080910402602001604051908101604052809291908181526020018280546103d0906107c0565b801561041d5780601f106103f25761010080835404028352916020019161041d565b820191906000526020600020905b81548152906001019060200180831161040057829003601f168201915b5050505050945060068054610431906107c0565b80601f016020809104026020016040519081016040528092919081815260200182805461045d906107c0565b80156104aa5780601f1061047f576101008083540402835291602001916104aa565b820191906000526020600020905b81548152906001019060200180831161048d57829003601f168201915b50505050509350600760009054906101000a900460ff16925060035491506001549050909192939495565b600073ffffffffffffffffffffffffffffffffffffffff82169050919050565b6000610500826104d5565b9050919050565b610510816104f5565b82525050565b600060208201905061052b6000830184610507565b92915050565b6000819050919050565b61054481610531565b82525050565b600060208201905061055f600083018461053b565b92915050565b600080fd5b6000610575826104d5565b9050919050565b6105858161056a565b811461059057600080fd5b50565b6000813590506105a28161057c565b92915050565b6000602082840312156105be576105bd610565565b5b60006105cc84828501610593565b91505092915050565b600081519050919050565b600082825260208201905092915050565b60005b8381101561060f5780820151818401526020810190506105f4565b8381111561061e576000848401525b50505050565b6000601f19601f8301169050919050565b6000610640826105d5565b61064a81856105e0565b935061065a8185602086016105f1565b61066381610624565b840191505092915050565b600060208201905081810360008301526106888184610635565b905092915050565b7f4e487b7100000000000000000000000000000000000000000000000000000000600052602160045260246000fd5b600281106106d0576106cf610690565b5b50565b60008190506106e1826106bf565b919050565b60006106f1826106d3565b9050919050565b610701816106e6565b82525050565b600060208201905061071c60008301846106f8565b92915050565b600060c0820190506107376000830189610507565b81810360208301526107498188610635565b9050818103604083015261075d8187610635565b905061076c60608301866106f8565b610779608083018561053b565b61078660a083018461053b565b979650505050505050565b7f4e487b7100000000000000000000000000000000000000000000000000000000600052602260045260246000fd5b600060028204905060018216806107d857607f821691505b6020821081036107eb576107ea610791565b5b5091905056fea26469706673582212205944ba52c6313cd9f45109e75a176ee12d6715b83e429af014fbe6430c04a60c64736f6c634300080e0033a26469706673582212205ec9718983be4cfbc0516e6b75d4ecf875b658808f26b6203503eaf8aa84c22c64736f6c634300080e0033",
  "immutableReferences": {},
  "source": "pragma solidity >=0.4.22 <0.9.0;\r\n\r\nimport '@openzeppelin/contracts/utils/math/SafeMath.sol';\r\n\r\ncontract ProjectFunding {\r\nusing SafeMath for uint256;\r\n\r\n Project[] public projects;\r\n\r\n    event ProjectStarted(\r\n        address contractAddress,\r\n        address projectStarter,\r\n        string projectTitle,\r\n        string projectDesc,\r\n        uint256 goalAmount\r\n    );\r\n\r\n    function createProject(\r\n    string calldata title,\r\n    string calldata description,\r\n    uint amountToRaise\r\n\r\n    ) external {\r\n        Project newProject = new Project (payable(msg.sender), title, description, amountToRaise);\r\n        projects.push(newProject);\r\n        emit ProjectStarted(\r\n            address(newProject),\r\n            payable(msg.sender),\r\n            title,\r\n            description,\r\n            amountToRaise\r\n        );\r\n    }   \r\n\r\n}\r\n\r\ncontract Project {\r\n    using SafeMath for uint256;\r\n    \r\n    enum State {\r\n        Fundraising,\r\n        Successful\r\n    }\r\n\r\n    address payable public creator;\r\n    uint public amountGoal; \r\n    uint public completeAt;\r\n    uint256 public currentBalance;\r\n    uint public raiseBy;\r\n    string public title;\r\n    string public description;\r\n    State public state = State.Fundraising; \r\n    mapping (address => uint) public contributions;\r\n\r\n    constructor\r\n    (\r\n        address payable projectStarter,\r\n        string memory projectTitle,\r\n        string memory projectDesc,\r\n        uint goalAmount\r\n    ) public {\r\n        creator = projectStarter;\r\n        title = projectTitle;\r\n        description = projectDesc;\r\n        amountGoal = goalAmount;\r\n        currentBalance = 0;\r\n    }\r\n\r\n    function getDetails() public view returns \r\n    (\r\n        address payable projectStarter,\r\n        string memory projectTitle,\r\n        string memory projectDesc,\r\n        State currentState,\r\n        uint256 currentAmount,\r\n        uint256 goalAmount\r\n    ) {\r\n        projectStarter = creator;\r\n        projectTitle = title;\r\n        projectDesc = description;\r\n        currentState = state;\r\n        currentAmount = currentBalance;\r\n        goalAmount = amountGoal;\r\n    }\r\n}",
  "sourcePath": "D:\\repos\\Benchain.FosilFreeFuture\\Momentum.FosilFreeFuture.Service\\Blockchain\\contracts\\ProjectFunding.sol",
  "compiler": {
    "name": "solc",
    "version": "0.8.14+commit.80d49f37.Emscripten.clang"
  },
  "schemaVersion": "3.4.7",
  "updatedAt": "2022-06-08T10:16:50.759Z",
  "devdoc": {
    "kind": "dev",
    "methods": {},
    "version": 1
  },
  "userdoc": {
    "kind": "user",
    "methods": {},
    "version": 1
  }
}