{
  "contractName": "ProjectFunding",
  "abi": [
    {
      "anonymous": false,
      "inputs": [
        {
          "indexed": false,
          "internalType": "address",
          "name": "contractAddress",
          "type": "address"
        }
      ],
      "name": "ProjectCreated",
      "type": "event"
    },
    {
      "inputs": [
        {
          "components": [
            {
              "internalType": "string",
              "name": "name",
              "type": "string"
            },
            {
              "internalType": "string",
              "name": "description",
              "type": "string"
            },
            {
              "internalType": "string",
              "name": "country",
              "type": "string"
            }
          ],
          "internalType": "struct ProjectFunding.ProjectDetails",
          "name": "details",
          "type": "tuple"
        },
        {
          "internalType": "uint256",
          "name": "fundsNeeded",
          "type": "uint256"
        },
        {
          "internalType": "string",
          "name": "image",
          "type": "string"
        },
        {
          "internalType": "string",
          "name": "logo",
          "type": "string"
        },
        {
          "internalType": "string",
          "name": "initiated",
          "type": "string"
        },
        {
          "internalType": "string",
          "name": "status",
          "type": "string"
        }
      ],
      "name": "createProject",
      "outputs": [],
      "stateMutability": "nonpayable",
      "type": "function"
    },
    {
      "inputs": [],
      "name": "returnAllProjects",
      "outputs": [
        {
          "internalType": "contract Project[]",
          "name": "",
          "type": "address[]"
        }
      ],
      "stateMutability": "view",
      "type": "function",
      "constant": true
    }
  ],
  "bytecode": "0x608060405234801561001057600080fd5b50611e12806100206000396000f3fe60806040523480156200001157600080fd5b50600436106200003a5760003560e01c806385b6e28e146200003f578063ea9617c31462000061575b600080fd5b6200004962000081565b6040516200005891906200036f565b60405180910390f35b6200007f600480360381019062000079919062000683565b62000111565b005b606060008054806020026020016040519081016040528092919081815260200182805480156200010757602002820191906000526020600020905b8160009054906101000a900473ffffffffffffffffffffffffffffffffffffffff1673ffffffffffffffffffffffffffffffffffffffff1681526020019060010190808311620000bc575b5050505050905090565b60008a600001518b604001518c602001518c8c8c8c8c8c8c8c8c604051620001399062000219565b620001509c9b9a99989796959493929190620008a4565b604051809103906000f0801580156200016d573d6000803e3d6000fd5b5090506000819080600181540180825580915050600190039060005260206000200160009091909190916101000a81548173ffffffffffffffffffffffffffffffffffffffff021916908373ffffffffffffffffffffffffffffffffffffffff1602179055507f3815a547ca4b753ae5cc6a73f3e019b6791faedad7fe0614a6e08d0bcfb137f18160405162000204919062000990565b60405180910390a15050505050505050505050565b61142f80620009ae83390190565b600081519050919050565b600082825260208201905092915050565b6000819050602082019050919050565b600073ffffffffffffffffffffffffffffffffffffffff82169050919050565b6000819050919050565b60006200029e62000298620002928462000253565b62000273565b62000253565b9050919050565b6000620002b2826200027d565b9050919050565b6000620002c682620002a5565b9050919050565b620002d881620002b9565b82525050565b6000620002ec8383620002cd565b60208301905092915050565b6000602082019050919050565b6000620003128262000227565b6200031e818562000232565b93506200032b8362000243565b8060005b8381101562000362578151620003468882620002de565b97506200035383620002f8565b9250506001810190506200032f565b5085935050505092915050565b600060208201905081810360008301526200038b818462000305565b905092915050565b6000604051905090565b600080fd5b600080fd5b600080fd5b6000601f19601f8301169050919050565b7f4e487b7100000000000000000000000000000000000000000000000000000000600052604160045260246000fd5b620003f782620003ac565b810181811067ffffffffffffffff82111715620004195762000418620003bd565b5b80604052505050565b60006200042e62000393565b90506200043c8282620003ec565b919050565b600080fd5b600080fd5b600080fd5b600067ffffffffffffffff8211156200046e576200046d620003bd565b5b6200047982620003ac565b9050602081019050919050565b82818337600083830152505050565b6000620004ac620004a68462000450565b62000422565b905082815260208101848484011115620004cb57620004ca6200044b565b5b620004d884828562000486565b509392505050565b600082601f830112620004f857620004f762000446565b5b81356200050a84826020860162000495565b91505092915050565b6000606082840312156200052c576200052b620003a7565b5b62000538606062000422565b9050600082013567ffffffffffffffff8111156200055b576200055a62000441565b5b6200056984828501620004e0565b600083015250602082013567ffffffffffffffff81111562000590576200058f62000441565b5b6200059e84828501620004e0565b602083015250604082013567ffffffffffffffff811115620005c557620005c462000441565b5b620005d384828501620004e0565b60408301525092915050565b6000819050919050565b620005f481620005df565b81146200060057600080fd5b50565b6000813590506200061481620005e9565b92915050565b600080fd5b600080fd5b60008083601f8401126200063d576200063c62000446565b5b8235905067ffffffffffffffff8111156200065d576200065c6200061a565b5b6020830191508360018202830111156200067c576200067b6200061f565b5b9250929050565b60008060008060008060008060008060c08b8d031215620006a957620006a86200039d565b5b60008b013567ffffffffffffffff811115620006ca57620006c9620003a2565b5b620006d88d828e0162000513565b9a50506020620006eb8d828e0162000603565b99505060408b013567ffffffffffffffff8111156200070f576200070e620003a2565b5b6200071d8d828e0162000624565b985098505060608b013567ffffffffffffffff811115620007435762000742620003a2565b5b620007518d828e0162000624565b965096505060808b013567ffffffffffffffff811115620007775762000776620003a2565b5b620007858d828e0162000624565b945094505060a08b013567ffffffffffffffff811115620007ab57620007aa620003a2565b5b620007b98d828e0162000624565b92509250509295989b9194979a5092959850565b600081519050919050565b600082825260208201905092915050565b60005b8381101562000809578082015181840152602081019050620007ec565b8381111562000819576000848401525b50505050565b60006200082c82620007cd565b620008388185620007d8565b93506200084a818560208601620007e9565b6200085581620003ac565b840191505092915050565b6200086b81620005df565b82525050565b60006200087f8385620007d8565b93506200088e83858462000486565b6200089983620003ac565b840190509392505050565b6000610100820190508181036000830152620008c1818f6200081f565b90508181036020830152620008d7818e6200081f565b90508181036040830152620008ed818d6200081f565b9050620008fe606083018c62000860565b818103608083015262000913818a8c62000871565b905081810360a08301526200092a81888a62000871565b905081810360c08301526200094181868862000871565b905081810360e08301526200095881848662000871565b90509d9c50505050505050505050505050565b6000620009788262000253565b9050919050565b6200098a816200096b565b82525050565b6000602082019050620009a760008301846200097f565b9291505056fe60806040523480156200001157600080fd5b506040516200142f3803806200142f83398181016040528101906200003791906200038b565b87600190805190602001906200004f92919062000103565b5086600290805190602001906200006892919062000103565b5085600390805190602001906200008192919062000103565b508460048190555060006005819055508360069080519060200190620000a992919062000103565b508260079080519060200190620000c292919062000103565b508160089080519060200190620000db92919062000103565b508060099080519060200190620000f492919062000103565b50505050505050505062000591565b82805462000111906200055c565b90600052602060002090601f01602090048101928262000135576000855562000181565b82601f106200015057805160ff191683800117855562000181565b8280016001018555821562000181579182015b828111156200018057825182559160200191906001019062000163565b5b50905062000190919062000194565b5090565b5b80821115620001af57600081600090555060010162000195565b5090565b6000604051905090565b600080fd5b600080fd5b600080fd5b600080fd5b6000601f19601f8301169050919050565b7f4e487b7100000000000000000000000000000000000000000000000000000000600052604160045260246000fd5b6200021c82620001d1565b810181811067ffffffffffffffff821117156200023e576200023d620001e2565b5b80604052505050565b600062000253620001b3565b905062000261828262000211565b919050565b600067ffffffffffffffff821115620002845762000283620001e2565b5b6200028f82620001d1565b9050602081019050919050565b60005b83811015620002bc5780820151818401526020810190506200029f565b83811115620002cc576000848401525b50505050565b6000620002e9620002e38462000266565b62000247565b905082815260208101848484011115620003085762000307620001cc565b5b620003158482856200029c565b509392505050565b600082601f830112620003355762000334620001c7565b5b815162000347848260208601620002d2565b91505092915050565b6000819050919050565b620003658162000350565b81146200037157600080fd5b50565b60008151905062000385816200035a565b92915050565b600080600080600080600080610100898b031215620003af57620003ae620001bd565b5b600089015167ffffffffffffffff811115620003d057620003cf620001c2565b5b620003de8b828c016200031d565b985050602089015167ffffffffffffffff811115620004025762000401620001c2565b5b620004108b828c016200031d565b975050604089015167ffffffffffffffff811115620004345762000433620001c2565b5b620004428b828c016200031d565b9650506060620004558b828c0162000374565b955050608089015167ffffffffffffffff811115620004795762000478620001c2565b5b620004878b828c016200031d565b94505060a089015167ffffffffffffffff811115620004ab57620004aa620001c2565b5b620004b98b828c016200031d565b93505060c089015167ffffffffffffffff811115620004dd57620004dc620001c2565b5b620004eb8b828c016200031d565b92505060e089015167ffffffffffffffff8111156200050f576200050e620001c2565b5b6200051d8b828c016200031d565b9150509295985092959890939650565b7f4e487b7100000000000000000000000000000000000000000000000000000000600052602260045260246000fd5b600060028204905060018216806200057557607f821691505b6020821081036200058b576200058a6200052d565b5b50919050565b610e8e80620005a16000396000f3fe6080604052600436106100ab5760003560e01c80637284e416116100645780637284e4161461021d5780639f11853614610248578063b4e830f114610273578063d8b0b4991461028a578063f3ccaac0146102b5578063fb7f21eb146102e05761010e565b806306fdde031461011357806311318b331461013e5780631fdfeed114610169578063200d2ed21461019457806322312f4b146101bf5780636ead3533146101ea5761010e565b3661010e5734600560008282546100c29190610ba3565b925050819055506004546005541061010c577f81b88f0ca6aa251a74ffd59f2ffd805267272f3a21e1381757891a8ac28e5bfc306040516101039190610c3a565b60405180910390a15b005b600080fd5b34801561011f57600080fd5b5061012861030b565b6040516101359190610cee565b60405180910390f35b34801561014a57600080fd5b50610153610399565b6040516101609190610d1f565b60405180910390f35b34801561017557600080fd5b5061017e61039f565b60405161018b9190610d1f565b60405180910390f35b3480156101a057600080fd5b506101a96103a5565b6040516101b69190610cee565b60405180910390f35b3480156101cb57600080fd5b506101d4610433565b6040516101e19190610c3a565b60405180910390f35b3480156101f657600080fd5b506101ff610457565b60405161021499989796959493929190610d3a565b60405180910390f35b34801561022957600080fd5b50610232610854565b60405161023f9190610cee565b60405180910390f35b34801561025457600080fd5b5061025d6108e2565b60405161026a9190610cee565b60405180910390f35b34801561027f57600080fd5b50610288610970565b005b34801561029657600080fd5b5061029f6109c0565b6040516102ac9190610cee565b60405180910390f35b3480156102c157600080fd5b506102ca610a4e565b6040516102d79190610cee565b60405180910390f35b3480156102ec57600080fd5b506102f5610adc565b6040516103029190610cee565b60405180910390f35b6001805461031890610e27565b80601f016020809104026020016040519081016040528092919081815260200182805461034490610e27565b80156103915780601f1061036657610100808354040283529160200191610391565b820191906000526020600020905b81548152906001019060200180831161037457829003601f168201915b505050505081565b60055481565b60045481565b600980546103b290610e27565b80601f01602080910402602001604051908101604052809291908181526020018280546103de90610e27565b801561042b5780601f106104005761010080835404028352916020019161042b565b820191906000526020600020905b81548152906001019060200180831161040e57829003601f168201915b505050505081565b60008054906101000a900473ffffffffffffffffffffffffffffffffffffffff1681565b6000606080606060006060806060803098506001805461047690610e27565b80601f01602080910402602001604051908101604052809291908181526020018280546104a290610e27565b80156104ef5780601f106104c4576101008083540402835291602001916104ef565b820191906000526020600020905b8154815290600101906020018083116104d257829003601f168201915b505050505097506002805461050390610e27565b80601f016020809104026020016040519081016040528092919081815260200182805461052f90610e27565b801561057c5780601f106105515761010080835404028352916020019161057c565b820191906000526020600020905b81548152906001019060200180831161055f57829003601f168201915b505050505096506003805461059090610e27565b80601f01602080910402602001604051908101604052809291908181526020018280546105bc90610e27565b80156106095780601f106105de57610100808354040283529160200191610609565b820191906000526020600020905b8154815290600101906020018083116105ec57829003601f168201915b5050505050955060045494506006805461062290610e27565b80601f016020809104026020016040519081016040528092919081815260200182805461064e90610e27565b801561069b5780601f106106705761010080835404028352916020019161069b565b820191906000526020600020905b81548152906001019060200180831161067e57829003601f168201915b50505050509350600780546106af90610e27565b80601f01602080910402602001604051908101604052809291908181526020018280546106db90610e27565b80156107285780601f106106fd57610100808354040283529160200191610728565b820191906000526020600020905b81548152906001019060200180831161070b57829003601f168201915b505050505092506008805461073c90610e27565b80601f016020809104026020016040519081016040528092919081815260200182805461076890610e27565b80156107b55780601f1061078a576101008083540402835291602001916107b5565b820191906000526020600020905b81548152906001019060200180831161079857829003601f168201915b50505050509150600980546107c990610e27565b80601f01602080910402602001604051908101604052809291908181526020018280546107f590610e27565b80156108425780601f1061081757610100808354040283529160200191610842565b820191906000526020600020905b81548152906001019060200180831161082557829003601f168201915b50505050509050909192939495969798565b6003805461086190610e27565b80601f016020809104026020016040519081016040528092919081815260200182805461088d90610e27565b80156108da5780601f106108af576101008083540402835291602001916108da565b820191906000526020600020905b8154815290600101906020018083116108bd57829003601f168201915b505050505081565b600880546108ef90610e27565b80601f016020809104026020016040519081016040528092919081815260200182805461091b90610e27565b80156109685780601f1061093d57610100808354040283529160200191610968565b820191906000526020600020905b81548152906001019060200180831161094b57829003601f168201915b505050505081565b3373ffffffffffffffffffffffffffffffffffffffff167f965cbf51c39ae7e75050ccf06630a37aa0ab7d2b4f1c9afa267a9186ae2c3881306040516109b69190610c3a565b60405180910390a2565b600280546109cd90610e27565b80601f01602080910402602001604051908101604052809291908181526020018280546109f990610e27565b8015610a465780601f10610a1b57610100808354040283529160200191610a46565b820191906000526020600020905b815481529060010190602001808311610a2957829003601f168201915b505050505081565b60068054610a5b90610e27565b80601f0160208091040260200160405190810160405280929190818152602001828054610a8790610e27565b8015610ad45780601f10610aa957610100808354040283529160200191610ad4565b820191906000526020600020905b815481529060010190602001808311610ab757829003601f168201915b505050505081565b60078054610ae990610e27565b80601f0160208091040260200160405190810160405280929190818152602001828054610b1590610e27565b8015610b625780601f10610b3757610100808354040283529160200191610b62565b820191906000526020600020905b815481529060010190602001808311610b4557829003601f168201915b505050505081565b6000819050919050565b7f4e487b7100000000000000000000000000000000000000000000000000000000600052601160045260246000fd5b6000610bae82610b6a565b9150610bb983610b6a565b9250827fffffffffffffffffffffffffffffffffffffffffffffffffffffffffffffffff03821115610bee57610bed610b74565b5b828201905092915050565b600073ffffffffffffffffffffffffffffffffffffffff82169050919050565b6000610c2482610bf9565b9050919050565b610c3481610c19565b82525050565b6000602082019050610c4f6000830184610c2b565b92915050565b600081519050919050565b600082825260208201905092915050565b60005b83811015610c8f578082015181840152602081019050610c74565b83811115610c9e576000848401525b50505050565b6000601f19601f8301169050919050565b6000610cc082610c55565b610cca8185610c60565b9350610cda818560208601610c71565b610ce381610ca4565b840191505092915050565b60006020820190508181036000830152610d088184610cb5565b905092915050565b610d1981610b6a565b82525050565b6000602082019050610d346000830184610d10565b92915050565b600061012082019050610d50600083018c610c2b565b8181036020830152610d62818b610cb5565b90508181036040830152610d76818a610cb5565b90508181036060830152610d8a8189610cb5565b9050610d996080830188610d10565b81810360a0830152610dab8187610cb5565b905081810360c0830152610dbf8186610cb5565b905081810360e0830152610dd38185610cb5565b9050818103610100830152610de88184610cb5565b90509a9950505050505050505050565b7f4e487b7100000000000000000000000000000000000000000000000000000000600052602260045260246000fd5b60006002820490506001821680610e3f57607f821691505b602082108103610e5257610e51610df8565b5b5091905056fea2646970667358221220a2928fb0d3b7404e21cdfb6fb11c3892b36011e1445a0079b3a3fa4a4b53dce864736f6c634300080e0033a26469706673582212200614cbbb3d642495f0b6631138ae9a133a3e2b4fa4b4fd0a48065a5f7cde955e64736f6c634300080e0033",
  "immutableReferences": {},
  "source": "// SPDX-License-Identifier: MIT\r\npragma solidity >=0.5.4 <0.9.0;\r\n\r\ncontract ProjectFunding {\r\n    struct ProjectDetails {\r\n        string name;\r\n        string description;\r\n        string country;\r\n    }\r\n\r\n    // List of existing projects\r\n    Project[] private projects;\r\n\r\n    event ProjectCreated(\r\n        address contractAddress\r\n    );\r\n\r\n    function createProject(\r\n        ProjectDetails memory details,\r\n        uint256 fundsNeeded,\r\n        string calldata image,\r\n        string calldata logo,\r\n        string calldata initiated,\r\n        string calldata status  // Enum?\r\n    ) external {\r\n        Project newProject = new Project(\r\n            details.name,\r\n            details.country,\r\n            details.description,\r\n            fundsNeeded,\r\n            image,\r\n            logo,\r\n            initiated,\r\n            status\r\n        );\r\n        projects.push(newProject);\r\n        emit ProjectCreated(\r\n            address(newProject)\r\n        );\r\n    }\r\n\r\n    function returnAllProjects() external view returns(Project[] memory){\r\n        return projects;\r\n    }\r\n\r\n}\r\n\r\ncontract Project {\r\n    event ProjectApproved(\r\n        address indexed partnerAddress,\r\n        address projectAddress\r\n    );\r\n\r\n    event ProjectCompleted(\r\n        address projectAddress\r\n    );\r\n\r\n    address public intiator;\r\n    string public name;\r\n    string public country;\r\n    string public description;\r\n    uint256 public fundsNeeded;\r\n    uint256 public fundsReceived;\r\n    string public image;\r\n    string public logo;\r\n    string public initiated;\r\n    string public status;\r\n\r\n    constructor\r\n    (\r\n        string memory _name,\r\n        string memory _country,\r\n        string memory _description,\r\n        uint256 _fundsNeeded,\r\n        string memory _image,\r\n        string memory _logo,\r\n        string memory _initiated,\r\n        string memory _status\r\n    ) {\r\n        name = _name;\r\n        country = _country;\r\n        description = _description;\r\n        fundsNeeded = _fundsNeeded;\r\n        fundsReceived = 0;\r\n        image = _image;\r\n        logo = _logo;\r\n        initiated = _initiated;\r\n        status = _status;\r\n    }\r\n\r\n    function GetProjectDetails() public view returns \r\n    (\r\n        address projectAddress,\r\n        string memory projectName,\r\n        string memory projectCountry,\r\n        string memory projectDescription,\r\n        uint256 projectFundsNeeded,\r\n        string memory projectImage,\r\n        string memory projectLogo,\r\n        string memory projectInitiated,\r\n        string memory projectStatus\r\n    ) {\r\n        projectAddress = address(this);\r\n        projectName = name;\r\n        projectCountry = country;\r\n        projectDescription = description;\r\n        projectFundsNeeded = fundsNeeded;\r\n        projectImage = image;\r\n        projectLogo = logo;\r\n        projectInitiated = initiated;\r\n        projectStatus = status;\r\n    }\r\n\r\n    function approveProject() public {\r\n        emit ProjectApproved(msg.sender, address(this));\r\n    }\r\n\r\n    receive() external payable {\r\n        fundsReceived += msg.value;\r\n\r\n        if (fundsReceived >= fundsNeeded) {\r\n            emit ProjectCompleted(address(this));\r\n        }\r\n    }\r\n}",
  "sourcePath": "D:\\repos\\Benchain.FosilFreeFuture\\Momentum.FosilFreeFuture.Service\\Blockchain\\contracts\\ProjectFunding.sol",
  "compiler": {
    "name": "solc",
    "version": "0.8.14+commit.80d49f37.Emscripten.clang"
  },
  "schemaVersion": "3.4.7",
  "updatedAt": "2022-06-10T09:43:04.320Z",
  "networkType": "ethereum",
  "devdoc": {
    "kind": "dev",
    "methods": {},
    "version": 1
  },
  "userdoc": {
    "kind": "user",
    "methods": {},
    "version": 1
  }
}