{
  "contractName": "Project",
  "abi": [
    {
      "inputs": [
        {
          "internalType": "string",
          "name": "_name",
          "type": "string"
        },
        {
          "internalType": "string",
          "name": "_country",
          "type": "string"
        },
        {
          "internalType": "string",
          "name": "_description",
          "type": "string"
        },
        {
          "internalType": "uint256",
          "name": "_fundsNeeded",
          "type": "uint256"
        },
        {
          "internalType": "string",
          "name": "_image",
          "type": "string"
        },
        {
          "internalType": "string",
          "name": "_logo",
          "type": "string"
        },
        {
          "internalType": "string",
          "name": "_initiated",
          "type": "string"
        },
        {
          "internalType": "string",
          "name": "_status",
          "type": "string"
        }
      ],
      "stateMutability": "nonpayable",
      "type": "constructor"
    },
    {
      "anonymous": false,
      "inputs": [
        {
          "indexed": false,
          "internalType": "address",
          "name": "projectAddress",
          "type": "address"
        }
      ],
      "name": "ProjectApproved",
      "type": "event"
    },
    {
      "anonymous": false,
      "inputs": [
        {
          "indexed": false,
          "internalType": "address",
          "name": "projectAddress",
          "type": "address"
        }
      ],
      "name": "ProjectCompleted",
      "type": "event"
    },
    {
      "inputs": [],
      "name": "country",
      "outputs": [
        {
          "internalType": "string",
          "name": "",
          "type": "string"
        }
      ],
      "stateMutability": "view",
      "type": "function"
    },
    {
      "inputs": [],
      "name": "description",
      "outputs": [
        {
          "internalType": "string",
          "name": "",
          "type": "string"
        }
      ],
      "stateMutability": "view",
      "type": "function"
    },
    {
      "inputs": [],
      "name": "fundsNeeded",
      "outputs": [
        {
          "internalType": "uint256",
          "name": "",
          "type": "uint256"
        }
      ],
      "stateMutability": "view",
      "type": "function"
    },
    {
      "inputs": [],
      "name": "fundsReceived",
      "outputs": [
        {
          "internalType": "uint256",
          "name": "",
          "type": "uint256"
        }
      ],
      "stateMutability": "view",
      "type": "function"
    },
    {
      "inputs": [],
      "name": "image",
      "outputs": [
        {
          "internalType": "string",
          "name": "",
          "type": "string"
        }
      ],
      "stateMutability": "view",
      "type": "function"
    },
    {
      "inputs": [],
      "name": "initiated",
      "outputs": [
        {
          "internalType": "string",
          "name": "",
          "type": "string"
        }
      ],
      "stateMutability": "view",
      "type": "function"
    },
    {
      "inputs": [],
      "name": "logo",
      "outputs": [
        {
          "internalType": "string",
          "name": "",
          "type": "string"
        }
      ],
      "stateMutability": "view",
      "type": "function"
    },
    {
      "inputs": [],
      "name": "name",
      "outputs": [
        {
          "internalType": "string",
          "name": "",
          "type": "string"
        }
      ],
      "stateMutability": "view",
      "type": "function"
    },
    {
      "inputs": [],
      "name": "status",
      "outputs": [
        {
          "internalType": "string",
          "name": "",
          "type": "string"
        }
      ],
      "stateMutability": "view",
      "type": "function"
    },
    {
      "stateMutability": "payable",
      "type": "receive"
    },
    {
      "inputs": [],
      "name": "GetProjectDetails",
      "outputs": [
        {
          "internalType": "string",
          "name": "projectName",
          "type": "string"
        },
        {
          "internalType": "string",
          "name": "projectCountry",
          "type": "string"
        },
        {
          "internalType": "string",
          "name": "projectDescription",
          "type": "string"
        },
        {
          "internalType": "uint256",
          "name": "projectFundsNeeded",
          "type": "uint256"
        },
        {
          "internalType": "string",
          "name": "projectImage",
          "type": "string"
        },
        {
          "internalType": "string",
          "name": "projectLogo",
          "type": "string"
        },
        {
          "internalType": "string",
          "name": "projectInitiated",
          "type": "string"
        },
        {
          "internalType": "string",
          "name": "projectStatus",
          "type": "string"
        }
      ],
      "stateMutability": "view",
      "type": "function"
    },
    {
      "inputs": [],
      "name": "approveProject",
      "outputs": [],
      "stateMutability": "nonpayable",
      "type": "function"
    }
  ],
  "bytecode": "0x60806040523480156200001157600080fd5b50604051620013a8380380620013a883398181016040528101906200003791906200038b565b87600090805190602001906200004f92919062000103565b5086600190805190602001906200006892919062000103565b5085600290805190602001906200008192919062000103565b508460038190555060006004819055508360059080519060200190620000a992919062000103565b508260069080519060200190620000c292919062000103565b508160079080519060200190620000db92919062000103565b508060089080519060200190620000f492919062000103565b50505050505050505062000591565b82805462000111906200055c565b90600052602060002090601f01602090048101928262000135576000855562000181565b82601f106200015057805160ff191683800117855562000181565b8280016001018555821562000181579182015b828111156200018057825182559160200191906001019062000163565b5b50905062000190919062000194565b5090565b5b80821115620001af57600081600090555060010162000195565b5090565b6000604051905090565b600080fd5b600080fd5b600080fd5b600080fd5b6000601f19601f8301169050919050565b7f4e487b7100000000000000000000000000000000000000000000000000000000600052604160045260246000fd5b6200021c82620001d1565b810181811067ffffffffffffffff821117156200023e576200023d620001e2565b5b80604052505050565b600062000253620001b3565b905062000261828262000211565b919050565b600067ffffffffffffffff821115620002845762000283620001e2565b5b6200028f82620001d1565b9050602081019050919050565b60005b83811015620002bc5780820151818401526020810190506200029f565b83811115620002cc576000848401525b50505050565b6000620002e9620002e38462000266565b62000247565b905082815260208101848484011115620003085762000307620001cc565b5b620003158482856200029c565b509392505050565b600082601f830112620003355762000334620001c7565b5b815162000347848260208601620002d2565b91505092915050565b6000819050919050565b620003658162000350565b81146200037157600080fd5b50565b60008151905062000385816200035a565b92915050565b600080600080600080600080610100898b031215620003af57620003ae620001bd565b5b600089015167ffffffffffffffff811115620003d057620003cf620001c2565b5b620003de8b828c016200031d565b985050602089015167ffffffffffffffff811115620004025762000401620001c2565b5b620004108b828c016200031d565b975050604089015167ffffffffffffffff811115620004345762000433620001c2565b5b620004428b828c016200031d565b9650506060620004558b828c0162000374565b955050608089015167ffffffffffffffff811115620004795762000478620001c2565b5b620004878b828c016200031d565b94505060a089015167ffffffffffffffff811115620004ab57620004aa620001c2565b5b620004b98b828c016200031d565b93505060c089015167ffffffffffffffff811115620004dd57620004dc620001c2565b5b620004eb8b828c016200031d565b92505060e089015167ffffffffffffffff8111156200050f576200050e620001c2565b5b6200051d8b828c016200031d565b9150509295985092959890939650565b7f4e487b7100000000000000000000000000000000000000000000000000000000600052602260045260246000fd5b600060028204905060018216806200057557607f821691505b6020821081036200058b576200058a6200052d565b5b50919050565b610e0780620005a16000396000f3fe6080604052600436106100a05760003560e01c80637284e416116100645780637284e416146101e65780639f11853614610211578063b4e830f11461023c578063d8b0b49914610253578063f3ccaac01461027e578063fb7f21eb146102a957610103565b806306fdde031461010857806311318b33146101335780631fdfeed11461015e578063200d2ed2146101895780636ead3533146101b457610103565b366101035734600460008282546100b79190610b2b565b9250508190555060035460045410610101577f81b88f0ca6aa251a74ffd59f2ffd805267272f3a21e1381757891a8ac28e5bfc306040516100f89190610bc2565b60405180910390a15b005b600080fd5b34801561011457600080fd5b5061011d6102d4565b60405161012a9190610c76565b60405180910390f35b34801561013f57600080fd5b50610148610362565b6040516101559190610ca7565b60405180910390f35b34801561016a57600080fd5b50610173610368565b6040516101809190610ca7565b60405180910390f35b34801561019557600080fd5b5061019e61036e565b6040516101ab9190610c76565b60405180910390f35b3480156101c057600080fd5b506101c96103fc565b6040516101dd989796959493929190610cc2565b60405180910390f35b3480156101f257600080fd5b506101fb6107f3565b6040516102089190610c76565b60405180910390f35b34801561021d57600080fd5b50610226610881565b6040516102339190610c76565b60405180910390f35b34801561024857600080fd5b5061025161090f565b005b34801561025f57600080fd5b50610268610948565b6040516102759190610c76565b60405180910390f35b34801561028a57600080fd5b506102936109d6565b6040516102a09190610c76565b60405180910390f35b3480156102b557600080fd5b506102be610a64565b6040516102cb9190610c76565b60405180910390f35b600080546102e190610da0565b80601f016020809104026020016040519081016040528092919081815260200182805461030d90610da0565b801561035a5780601f1061032f5761010080835404028352916020019161035a565b820191906000526020600020905b81548152906001019060200180831161033d57829003601f168201915b505050505081565b60045481565b60035481565b6008805461037b90610da0565b80601f01602080910402602001604051908101604052809291908181526020018280546103a790610da0565b80156103f45780601f106103c9576101008083540402835291602001916103f4565b820191906000526020600020905b8154815290600101906020018083116103d757829003601f168201915b505050505081565b606080606060006060806060806000805461041690610da0565b80601f016020809104026020016040519081016040528092919081815260200182805461044290610da0565b801561048f5780601f106104645761010080835404028352916020019161048f565b820191906000526020600020905b81548152906001019060200180831161047257829003601f168201915b50505050509750600180546104a390610da0565b80601f01602080910402602001604051908101604052809291908181526020018280546104cf90610da0565b801561051c5780601f106104f15761010080835404028352916020019161051c565b820191906000526020600020905b8154815290600101906020018083116104ff57829003601f168201915b505050505096506002805461053090610da0565b80601f016020809104026020016040519081016040528092919081815260200182805461055c90610da0565b80156105a95780601f1061057e576101008083540402835291602001916105a9565b820191906000526020600020905b81548152906001019060200180831161058c57829003601f168201915b505050505095506003549450600580546105c290610da0565b80601f01602080910402602001604051908101604052809291908181526020018280546105ee90610da0565b801561063b5780601f106106105761010080835404028352916020019161063b565b820191906000526020600020905b81548152906001019060200180831161061e57829003601f168201915b505050505093506006805461064f90610da0565b80601f016020809104026020016040519081016040528092919081815260200182805461067b90610da0565b80156106c85780601f1061069d576101008083540402835291602001916106c8565b820191906000526020600020905b8154815290600101906020018083116106ab57829003601f168201915b50505050509250600780546106dc90610da0565b80601f016020809104026020016040519081016040528092919081815260200182805461070890610da0565b80156107555780601f1061072a57610100808354040283529160200191610755565b820191906000526020600020905b81548152906001019060200180831161073857829003601f168201915b505050505091506008805461076990610da0565b80601f016020809104026020016040519081016040528092919081815260200182805461079590610da0565b80156107e25780601f106107b7576101008083540402835291602001916107e2565b820191906000526020600020905b8154815290600101906020018083116107c557829003601f168201915b505050505090509091929394959697565b6002805461080090610da0565b80601f016020809104026020016040519081016040528092919081815260200182805461082c90610da0565b80156108795780601f1061084e57610100808354040283529160200191610879565b820191906000526020600020905b81548152906001019060200180831161085c57829003601f168201915b505050505081565b6007805461088e90610da0565b80601f01602080910402602001604051908101604052809291908181526020018280546108ba90610da0565b80156109075780601f106108dc57610100808354040283529160200191610907565b820191906000526020600020905b8154815290600101906020018083116108ea57829003601f168201915b505050505081565b7f8b16df08b6a45161a2accfac7e351325ff3df2aed213dd821e0be370c010831c3360405161093e9190610bc2565b60405180910390a1565b6001805461095590610da0565b80601f016020809104026020016040519081016040528092919081815260200182805461098190610da0565b80156109ce5780601f106109a3576101008083540402835291602001916109ce565b820191906000526020600020905b8154815290600101906020018083116109b157829003601f168201915b505050505081565b600580546109e390610da0565b80601f0160208091040260200160405190810160405280929190818152602001828054610a0f90610da0565b8015610a5c5780601f10610a3157610100808354040283529160200191610a5c565b820191906000526020600020905b815481529060010190602001808311610a3f57829003601f168201915b505050505081565b60068054610a7190610da0565b80601f0160208091040260200160405190810160405280929190818152602001828054610a9d90610da0565b8015610aea5780601f10610abf57610100808354040283529160200191610aea565b820191906000526020600020905b815481529060010190602001808311610acd57829003601f168201915b505050505081565b6000819050919050565b7f4e487b7100000000000000000000000000000000000000000000000000000000600052601160045260246000fd5b6000610b3682610af2565b9150610b4183610af2565b9250827fffffffffffffffffffffffffffffffffffffffffffffffffffffffffffffffff03821115610b7657610b75610afc565b5b828201905092915050565b600073ffffffffffffffffffffffffffffffffffffffff82169050919050565b6000610bac82610b81565b9050919050565b610bbc81610ba1565b82525050565b6000602082019050610bd76000830184610bb3565b92915050565b600081519050919050565b600082825260208201905092915050565b60005b83811015610c17578082015181840152602081019050610bfc565b83811115610c26576000848401525b50505050565b6000601f19601f8301169050919050565b6000610c4882610bdd565b610c528185610be8565b9350610c62818560208601610bf9565b610c6b81610c2c565b840191505092915050565b60006020820190508181036000830152610c908184610c3d565b905092915050565b610ca181610af2565b82525050565b6000602082019050610cbc6000830184610c98565b92915050565b6000610100820190508181036000830152610cdd818b610c3d565b90508181036020830152610cf1818a610c3d565b90508181036040830152610d058189610c3d565b9050610d146060830188610c98565b8181036080830152610d268187610c3d565b905081810360a0830152610d3a8186610c3d565b905081810360c0830152610d4e8185610c3d565b905081810360e0830152610d628184610c3d565b90509998505050505050505050565b7f4e487b7100000000000000000000000000000000000000000000000000000000600052602260045260246000fd5b60006002820490506001821680610db857607f821691505b602082108103610dcb57610dca610d71565b5b5091905056fea2646970667358221220ff8e12f278ee9dfcdcce31dc1d8c20a81e171b83081a54ebdabbec91bf23cd2564736f6c634300080e0033",
  "immutableReferences": {},
  "source": "// SPDX-License-Identifier: MIT\r\npragma solidity >=0.5.4 <0.9.0;\r\n\r\ncontract ProjectFunding {\r\n    struct ProjectDetails {\r\n        string name;\r\n        string description;\r\n        string country;\r\n    }\r\n\r\n    // List of existing projects\r\n    Project[] private projects;\r\n\r\n    event ProjectCreated(\r\n        address contractAddress\r\n    );\r\n\r\n    function createProject(\r\n        ProjectDetails memory details,\r\n        uint256 fundsNeeded,\r\n        string calldata image,\r\n        string calldata logo,\r\n        string calldata initiated,\r\n        string calldata status  // Enum?\r\n    ) external {\r\n        Project newProject = new Project(\r\n            details.name,\r\n            details.country,\r\n            details.description,\r\n            fundsNeeded,\r\n            image,\r\n            logo,\r\n            initiated,\r\n            status\r\n        );\r\n        projects.push(newProject);\r\n        emit ProjectCreated(\r\n            address(newProject)\r\n        );\r\n    }\r\n\r\n    function returnAllProjects() external view returns(Project[] memory){\r\n        return projects;\r\n    }\r\n\r\n}\r\n\r\ncontract Project {\r\n    event ProjectApproved(\r\n        address projectAddress\r\n    );\r\n\r\n    event ProjectCompleted(\r\n        address projectAddress\r\n    );\r\n\r\n    string public name;\r\n    string public country;\r\n    string public description;\r\n    uint256 public fundsNeeded;\r\n    uint256 public fundsReceived;\r\n    string public image;\r\n    string public logo;\r\n    string public initiated;\r\n    string public status;\r\n\r\n    constructor\r\n    (\r\n        string memory _name,\r\n        string memory _country,\r\n        string memory _description,\r\n        uint256 _fundsNeeded,\r\n        string memory _image,\r\n        string memory _logo,\r\n        string memory _initiated,\r\n        string memory _status\r\n    ) {\r\n        name = _name;\r\n        country = _country;\r\n        description = _description;\r\n        fundsNeeded = _fundsNeeded;\r\n        fundsReceived = 0;\r\n        image = _image;\r\n        logo = _logo;\r\n        initiated = _initiated;\r\n        status = _status;\r\n    }\r\n\r\n    function GetProjectDetails() public view returns \r\n    (\r\n        string memory projectName,\r\n        string memory projectCountry,\r\n        string memory projectDescription,\r\n        uint256 projectFundsNeeded,\r\n        string memory projectImage,\r\n        string memory projectLogo,\r\n        string memory projectInitiated,\r\n        string memory projectStatus\r\n    ) {\r\n        projectName = name;\r\n        projectCountry = country;\r\n        projectDescription = description;\r\n        projectFundsNeeded = fundsNeeded;\r\n        projectImage = image;\r\n        projectLogo = logo;\r\n        projectInitiated = initiated;\r\n        projectStatus = status;\r\n    }\r\n\r\n    function approveProject() public {\r\n        emit ProjectApproved(msg.sender);\r\n    }\r\n\r\n    receive() external payable {\r\n        fundsReceived += msg.value;\r\n\r\n        if (fundsReceived >= fundsNeeded) {\r\n            emit ProjectCompleted(address(this));\r\n        }\r\n    }\r\n}",
  "sourcePath": "C:\\Repos\\Momentum.FosilFreeFuture\\Momentum.FosilFreeFuture.Service\\Blockchain\\contracts\\ProjectFunding.sol",
  "compiler": {
    "name": "solc",
    "version": "0.8.14+commit.80d49f37.Emscripten.clang"
  },
  "schemaVersion": "3.4.7",
  "updatedAt": "2022-06-10T00:37:05.932Z",
  "devdoc": {
    "kind": "dev",
    "methods": {},
    "version": 1
  },
  "userdoc": {
    "kind": "user",
    "methods": {},
    "version": 1
  }
}