{
  "contractName": "Project",
  "abi": [
    {
      "inputs": [
        {
          "internalType": "string",
          "name": "_name",
          "type": "string"
        },
        {
          "internalType": "string",
          "name": "_country",
          "type": "string"
        },
        {
          "internalType": "string",
          "name": "_description",
          "type": "string"
        },
        {
          "internalType": "uint256",
          "name": "_fundsNeeded",
          "type": "uint256"
        },
        {
          "internalType": "string",
          "name": "_image",
          "type": "string"
        },
        {
          "internalType": "string",
          "name": "_logo",
          "type": "string"
        },
        {
          "internalType": "string",
          "name": "_initiated",
          "type": "string"
        },
        {
          "internalType": "string",
          "name": "_status",
          "type": "string"
        }
      ],
      "stateMutability": "nonpayable",
      "type": "constructor"
    },
    {
      "inputs": [],
      "name": "country",
      "outputs": [
        {
          "internalType": "string",
          "name": "",
          "type": "string"
        }
      ],
      "stateMutability": "view",
      "type": "function"
    },
    {
      "inputs": [],
      "name": "description",
      "outputs": [
        {
          "internalType": "string",
          "name": "",
          "type": "string"
        }
      ],
      "stateMutability": "view",
      "type": "function"
    },
    {
      "inputs": [],
      "name": "fundsNeeded",
      "outputs": [
        {
          "internalType": "uint256",
          "name": "",
          "type": "uint256"
        }
      ],
      "stateMutability": "view",
      "type": "function"
    },
    {
      "inputs": [],
      "name": "image",
      "outputs": [
        {
          "internalType": "string",
          "name": "",
          "type": "string"
        }
      ],
      "stateMutability": "view",
      "type": "function"
    },
    {
      "inputs": [],
      "name": "initiated",
      "outputs": [
        {
          "internalType": "string",
          "name": "",
          "type": "string"
        }
      ],
      "stateMutability": "view",
      "type": "function"
    },
    {
      "inputs": [],
      "name": "logo",
      "outputs": [
        {
          "internalType": "string",
          "name": "",
          "type": "string"
        }
      ],
      "stateMutability": "view",
      "type": "function"
    },
    {
      "inputs": [],
      "name": "name",
      "outputs": [
        {
          "internalType": "string",
          "name": "",
          "type": "string"
        }
      ],
      "stateMutability": "view",
      "type": "function"
    },
    {
      "inputs": [],
      "name": "status",
      "outputs": [
        {
          "internalType": "string",
          "name": "",
          "type": "string"
        }
      ],
      "stateMutability": "view",
      "type": "function"
    }
  ],
  "bytecode": "0x60806040523480156200001157600080fd5b5060405162000c8338038062000c83833981810160405281019062000037919062000383565b87600090805190602001906200004f929190620000fb565b50866001908051906020019062000068929190620000fb565b50856002908051906020019062000081929190620000fb565b50846003819055508360049080519060200190620000a1929190620000fb565b508260059080519060200190620000ba929190620000fb565b508160069080519060200190620000d3929190620000fb565b508060079080519060200190620000ec929190620000fb565b50505050505050505062000589565b828054620001099062000554565b90600052602060002090601f0160209004810192826200012d576000855562000179565b82601f106200014857805160ff191683800117855562000179565b8280016001018555821562000179579182015b82811115620001785782518255916020019190600101906200015b565b5b5090506200018891906200018c565b5090565b5b80821115620001a75760008160009055506001016200018d565b5090565b6000604051905090565b600080fd5b600080fd5b600080fd5b600080fd5b6000601f19601f8301169050919050565b7f4e487b7100000000000000000000000000000000000000000000000000000000600052604160045260246000fd5b6200021482620001c9565b810181811067ffffffffffffffff82111715620002365762000235620001da565b5b80604052505050565b60006200024b620001ab565b905062000259828262000209565b919050565b600067ffffffffffffffff8211156200027c576200027b620001da565b5b6200028782620001c9565b9050602081019050919050565b60005b83811015620002b457808201518184015260208101905062000297565b83811115620002c4576000848401525b50505050565b6000620002e1620002db846200025e565b6200023f565b9050828152602081018484840111156200030057620002ff620001c4565b5b6200030d84828562000294565b509392505050565b600082601f8301126200032d576200032c620001bf565b5b81516200033f848260208601620002ca565b91505092915050565b6000819050919050565b6200035d8162000348565b81146200036957600080fd5b50565b6000815190506200037d8162000352565b92915050565b600080600080600080600080610100898b031215620003a757620003a6620001b5565b5b600089015167ffffffffffffffff811115620003c857620003c7620001ba565b5b620003d68b828c0162000315565b985050602089015167ffffffffffffffff811115620003fa57620003f9620001ba565b5b620004088b828c0162000315565b975050604089015167ffffffffffffffff8111156200042c576200042b620001ba565b5b6200043a8b828c0162000315565b96505060606200044d8b828c016200036c565b955050608089015167ffffffffffffffff811115620004715762000470620001ba565b5b6200047f8b828c0162000315565b94505060a089015167ffffffffffffffff811115620004a357620004a2620001ba565b5b620004b18b828c0162000315565b93505060c089015167ffffffffffffffff811115620004d557620004d4620001ba565b5b620004e38b828c0162000315565b92505060e089015167ffffffffffffffff811115620005075762000506620001ba565b5b620005158b828c0162000315565b9150509295985092959890939650565b7f4e487b7100000000000000000000000000000000000000000000000000000000600052602260045260246000fd5b600060028204905060018216806200056d57607f821691505b60208210810362000583576200058262000525565b5b50919050565b6106ea80620005996000396000f3fe608060405234801561001057600080fd5b50600436106100885760003560e01c80639f1185361161005b5780639f11853614610105578063d8b0b49914610123578063f3ccaac014610141578063fb7f21eb1461015f57610088565b806306fdde031461008d5780631fdfeed1146100ab578063200d2ed2146100c95780637284e416146100e7575b600080fd5b61009561017d565b6040516100a291906105fe565b60405180910390f35b6100b361020b565b6040516100c09190610639565b60405180910390f35b6100d1610211565b6040516100de91906105fe565b60405180910390f35b6100ef61029f565b6040516100fc91906105fe565b60405180910390f35b61010d61032d565b60405161011a91906105fe565b60405180910390f35b61012b6103bb565b60405161013891906105fe565b60405180910390f35b610149610449565b60405161015691906105fe565b60405180910390f35b6101676104d7565b60405161017491906105fe565b60405180910390f35b6000805461018a90610683565b80601f01602080910402602001604051908101604052809291908181526020018280546101b690610683565b80156102035780601f106101d857610100808354040283529160200191610203565b820191906000526020600020905b8154815290600101906020018083116101e657829003601f168201915b505050505081565b60035481565b6007805461021e90610683565b80601f016020809104026020016040519081016040528092919081815260200182805461024a90610683565b80156102975780601f1061026c57610100808354040283529160200191610297565b820191906000526020600020905b81548152906001019060200180831161027a57829003601f168201915b505050505081565b600280546102ac90610683565b80601f01602080910402602001604051908101604052809291908181526020018280546102d890610683565b80156103255780601f106102fa57610100808354040283529160200191610325565b820191906000526020600020905b81548152906001019060200180831161030857829003601f168201915b505050505081565b6006805461033a90610683565b80601f016020809104026020016040519081016040528092919081815260200182805461036690610683565b80156103b35780601f10610388576101008083540402835291602001916103b3565b820191906000526020600020905b81548152906001019060200180831161039657829003601f168201915b505050505081565b600180546103c890610683565b80601f01602080910402602001604051908101604052809291908181526020018280546103f490610683565b80156104415780601f1061041657610100808354040283529160200191610441565b820191906000526020600020905b81548152906001019060200180831161042457829003601f168201915b505050505081565b6004805461045690610683565b80601f016020809104026020016040519081016040528092919081815260200182805461048290610683565b80156104cf5780601f106104a4576101008083540402835291602001916104cf565b820191906000526020600020905b8154815290600101906020018083116104b257829003601f168201915b505050505081565b600580546104e490610683565b80601f016020809104026020016040519081016040528092919081815260200182805461051090610683565b801561055d5780601f106105325761010080835404028352916020019161055d565b820191906000526020600020905b81548152906001019060200180831161054057829003601f168201915b505050505081565b600081519050919050565b600082825260208201905092915050565b60005b8381101561059f578082015181840152602081019050610584565b838111156105ae576000848401525b50505050565b6000601f19601f8301169050919050565b60006105d082610565565b6105da8185610570565b93506105ea818560208601610581565b6105f3816105b4565b840191505092915050565b6000602082019050818103600083015261061881846105c5565b905092915050565b6000819050919050565b61063381610620565b82525050565b600060208201905061064e600083018461062a565b92915050565b7f4e487b7100000000000000000000000000000000000000000000000000000000600052602260045260246000fd5b6000600282049050600182168061069b57607f821691505b6020821081036106ae576106ad610654565b5b5091905056fea26469706673582212202dd592834945f9fe83f992a14bbeb4bbe299a7464714636a1ba139befb78a95b64736f6c634300080e0033",
  "immutableReferences": {},
  "source": "// SPDX-License-Identifier: MIT\r\npragma solidity >=0.4.22 <0.9.0;\r\n\r\ncontract Project {\r\n    \r\n    enum State {\r\n        Fundraising,\r\n        Successful\r\n    }\r\n\r\n    // address payable public creator;\r\n    // uint public amountGoal; \r\n    // uint public completeAt;\r\n    // uint256 public currentBalance;\r\n    // uint public raiseBy;\r\n    // string public title;\r\n    // string public description;\r\n    \r\n    string public name;\r\n    string public country;\r\n    string public description;\r\n    uint256 public fundsNeeded;\r\n    string public image;\r\n    string public logo;\r\n    string public initiated;\r\n    string public status;\r\n\r\n    // State public state = State.Fundraising; \r\n    // mapping (address => uint) public contributions;\r\n\r\n    constructor\r\n    (\r\n        string memory _name,\r\n        string memory _country,\r\n        string memory _description,\r\n        uint256 _fundsNeeded,\r\n        string memory _image,\r\n        string memory _logo,\r\n        string memory _initiated,\r\n        string memory _status\r\n        // string memory projectTitle,\r\n        // string memory projectDesc,\r\n        // uint goalAmount\r\n    ) {\r\n        name = _name;\r\n        country = _country;\r\n        description = _description;\r\n        fundsNeeded = _fundsNeeded;\r\n        image = _image;\r\n        logo = _logo;\r\n        initiated = _initiated;\r\n        status = _status;\r\n    }\r\n}",
  "sourcePath": "C:\\Repos\\Momentum.FosilFreeFuture\\Momentum.FosilFreeFuture.Service\\Blockchain\\contracts\\ProjectFunding.sol",
  "compiler": {
    "name": "solc",
    "version": "0.8.14+commit.80d49f37.Emscripten.clang"
  },
  "schemaVersion": "3.4.7",
  "updatedAt": "2022-06-09T09:59:04.549Z",
  "devdoc": {
    "kind": "dev",
    "methods": {},
    "version": 1
  },
  "userdoc": {
    "kind": "user",
    "methods": {},
    "version": 1
  }
}